:020000040800F2
:10000000180200200101000805010008070100088E
:10001000090100080B0100080D01000800000000A4
:100020000000000000000000000000000F010008B8
:10003000110100080000000013010008150100086C
:100040001701000817010008170100081701000830
:100050001701000817010008170100081701000820
:100060001701000817010008170100081701000810
:100070001701000817010008170100081701000800
:1000800017010008170100081701000817010008F0
:1000900017010008170100081701000817010008E0
:1000A00017010008170100081701000817010008D0
:1000B00017010008170100081701000817010008C0
:1000C00017010008170100081701000817010008B0
:1000D00017010008170100081701000817010008A0
:1000E000170100081701000817010008DFF80CD0FD
:1000F00000F014F800480047090500081802002025
:1001000005480047FEE7FEE7FEE7FEE7FEE7FEE7FD
:10011000FEE7FEE7FEE7FEE7ED000008064C074DB0
:1001200006E0E06840F0010394E8070098471034C7
:10013000AC42F6D3FFF7DEFF48050008680500086B
:100140002DE9F0410246002500260020002300246E
:10015000002791F803C00CF00F0591F803C00CF0D4
:10016000100CBCF1000F03D091F802C04CEA050559
:1001700091F800C0BCF1000F31D0146800202BE0D2
:100180004FF0010C0CFA00F3B1F800C00CEA0306C2
:100190009E4220D183004FF00F0C0CFA03F7BC43B2
:1001A00005FA03FC4CEA040491F803C0BCF1280FE3
:1001B00006D14FF0010C0CFA00FCC2F814C00AE0A2
:1001C00091F803C0BCF1480F05D14FF0010C0CFAB7
:1001D00000FCC2F810C0401C0828D1D31460B1F84C
:1001E00000C0BCF1FF0F34DD546800202EE000F1A8
:1001F000080C4FF0010808FA0CF3B1F800C00CEA43
:1002000003069E4221D183004FF00F0C0CFA03F736
:10021000BC4305FA03FC4CEA040491F803C0BCF1AA
:10022000280F05D100F1080C08FA0CF8C2F8148068
:1002300091F803C0BCF1480F07D100F1080C4FF052
:10024000010808FA0CF8C2F81080401C0828CED328
:100250005460BDE8F081000029B1064A926902436A
:10026000044B9A6104E0034A92698243014B9A610C
:10027000704700000010024030B500210022002429
:1002800000232D4D6D6805F00C0121B1042905D026
:10029000082923D105E0294D056022E0274D05609E
:1002A0001FE0254D6D6805F47012022505EB9242A2
:1002B000214D6D6805F480341CB9214D554305600E
:1002C0000BE01D4D6D6805F400351DB11C4D554307
:1002D000056002E0194D5543056002E0174D0560C9
:1002E00000BF00BF144D6D6805F0F0010909154D00
:1002F0006B5C0568DD4045600F4D6D6805F4E0619D
:10030000090A104D6B5C4568DD4085600A4D6D68DB
:1003100005F46051C90A0B4D6B5C4568DD40C56052
:10032000054D6D6805F44041890B074D6B5CC56850
:10033000B5FBF3F5056130BD0010024000127A00F4
:1003400000093D00000000201000002021B182893A
:1003500042F40052828104E082894DF6FF731A4014
:100360008281704700B585B0012144F20400FFF797
:1003700073FF4FF40070ADF8000018208DF80300F3
:1003800003208DF8020069461348FFF7D9FE4FF4A9
:100390008060ADF8000004208DF8030069460E4827
:1003A000FFF7CEFE4FF4E13001900020ADF80800D9
:1003B000ADF80A00ADF80C00ADF810000C20ADF857
:1003C0000E0001A9054800F015F801210348FFF7C8
:1003D000BDFF05B000BD000000080140003801402D
:1003E0000246002013880B400BB1012000E00020E2
:1003F000704700002DE9F04786B005460E46002400
:10040000A24600BF00BF00272F462C8A4CF6FF7083
:100410000440F08804432C82AC894EF6F31004406B
:10042000B08831890843718908430443AC81AC8AA0
:100430004FF6FF400440B0890443AC8201A8FFF7A7
:100440001BFF1248874202D1DDF810A001E0DDF861
:100450000CA00AEBCA0000EB0A1031688900B0FB5F
:10046000F1F86420B8FBF0F004012009642101FBDD
:100470001089322000EB0910B0FBF1F000F00F0002
:1004800004432C8106B0BDE8F0870000003801402D
:10049000C1F308028280704770B504460D462946B4
:1004A0002046FFF7F5FF00BF40212046FFF798FFE9
:1004B0000028F9D070BD70B506460C46002500BF77
:1004C000601910F8011C3046FFF7E6FF6D1C60193B
:1004D00010F8010C0028F3D100BF40213046FFF78F
:1004E0007FFF0028F9D070BD02E008C8121F08C1C4
:1004F000002AFAD170477047002001E001C1121FA5
:10050000002AFBD170470000FFF72CFF02A10D4825
:10051000FFF7D1FF00BFFEE70D0A2077656C636F20
:100520006D6520746F2068657265200D0A2844652A
:100530006320203320323031362D31363A31373A8C
:100540003537290000380140680500080000002008
:1005500014000000E80400087C05000814000020D6
:1005600004020000F8040008000000000102030477
:0C05700001020304060708090204060843
:04000005080000ED02
:00000001FF
