:020000040800F2
:10000000080200200101000805010008070100089E
:10001000090100080B0100080D01000800000000A4
:100020000000000000000000000000000F010008B8
:10003000110100080000000013010008F905000884
:100040001701000817010008170100081701000830
:100050001701000817010008170100081701000820
:100060001701000817010008170100081701000810
:100070001701000817010008170100081701000800
:1000800017010008170100081701000817010008F0
:1000900017010008170100081701000817010008E0
:1000A00017010008170100081701000817010008D0
:1000B0001701000879060008170100081701000859
:1000C00017010008170100081701000817010008B0
:1000D00017010008170100081701000817010008A0
:1000E000170100081701000817010008DFF80CD0FD
:1000F00000F014F8004800475507000808020020E7
:1001000005480047FEE7FEE7FEE7FEE7FEE7FEE7FD
:10011000FEE7FEE7FEE7FEE7ED000008064C074DB0
:1001200006E0E06840F0010394E8070098471034C7
:10013000AC42F6D3FFF7DEFFF80700081808000806
:100140000549096821F01001034A11601146096848
:10015000014311607047000000200240014600206A
:10016000034A106800F03800084310607047000030
:100170000020024008B50121102000F015F94FF4CD
:100180004040ADF8000003208DF8020010208DF8EB
:1001900003006946014800F003F808BD0010014063
:1001A0002DE9F0410246002500260020002300240E
:1001B000002791F803C00CF00F0591F803C00CF074
:1001C000100CBCF1000F03D091F802C04CEA0505F9
:1001D00091F800C0BCF1000F31D0146800202BE072
:1001E0004FF0010C0CFA00F3B1F800C00CEA030662
:1001F0009E4220D183004FF00F0C0CFA03F7BC4352
:1002000005FA03FC4CEA040491F803C0BCF1280F82
:1002100006D14FF0010C0CFA00FCC2F814C00AE041
:1002200091F803C0BCF1480F05D14FF0010C0CFA56
:1002300000FCC2F810C0401C0828D1D31460B1F8EB
:1002400000C0BCF1FF0F34DD546800202EE000F147
:10025000080C4FF0010808FA0CF3B1F800C00CEAE2
:1002600003069E4221D183004FF00F0C0CFA03F7D6
:10027000BC4305FA03FC4CEA040491F803C0BCF14A
:10028000280F05D100F1080C08FA0CF8C2F8148008
:1002900091F803C0BCF1480F07D100F1080C4FF0F2
:1002A000010808FA0CF8C2F81080401C0828CED3C8
:1002B0005460BDE8F081416170470161704708B545
:1002C00000214FF0006000F055F84FF4E06000F0BE
:1002D00047F81D208DF8000000208DF80100012056
:1002E0008DF802008DF80300684600F001F808BDA3
:1002F00070B5002100230F22C47804B3154C246884
:1003000004F4E064C4F5E064210AC1F10403CA40C6
:10031000447804FA03F184781440214309010E4C17
:100320000678A155047804F01F050124AC40057837
:100330006D11AD0005F1E025C5F8004109E0047834
:1003400004F01F050124AC40044D0678761145F8F1
:10035000264070BD0CED00E000E400E080E100E02C
:1003600002490143024A1160704700000000FA058B
:100370000CED00E0024A0A400243024B1A6070474B
:1003800080FFFF1F08ED00E029B1064AD269024351
:10039000044BDA6104E0034AD2698243014BDA611B
:1003A000704700000010024029B1064A92690243DA
:1003B000044B9A6104E0034A92698243014B9A61BB
:1003C000704700000010024010B500F02FF84FF405
:1003D000803000F083F800F0DFF80446012C24D1CF
:1003E0001020FFF7ADFE0220FFF7B8FE002000F05E
:1003F00069F8002000F0A4F8A00200F095F84FF48E
:10040000E011200400F0AEF8012000F0A5F800BFD4
:10041000392000F031F80028FAD0022000F0B0F8BE
:1004200000BF00F047F80828FBD110BD0F48006856
:1004300040F001000D490860084640680C4908403A
:100440000A494860084600680A49084007490860A8
:100450000846006820F4802008600846406820F4C0
:10046000FE004860002088607047000000100240D5
:100470000000FFF8FFFFF6FE10B501460022002342
:1004800000204A11012A02D1094C236806E0022A01
:1004900002D1074C236A01E0054C636A01F01F0298
:1004A000012494401C400CB1012000E0002010BD4C
:1004B000001002400248406800F00C007047000045
:1004C0000010024001460020034A506820F0F0006E
:1004D000084350607047000000100240114909684D
:1004E00021F480310F4A11601146096821F48021FE
:1004F0001160B0F5803F03D0B0F5802F0ED106E03B
:100500000849096841F48031064A116007E005494D
:10051000096841F4A021034A116000E000BF00BF58
:10052000704700000010024001460020034A506856
:1005300020F4E06008435060704700000010024063
:1005400001460020034A506820F4605040EAC10090
:100550005060704700100240014908667047000073
:100560000000424202460020044B586820F47C10F0
:1005700042EA01031843014B5860704700100240E3
:1005800001460020034A506820F0030008435060F1
:10059000704700000010024038B500200090002491
:1005A000002500BF3120FFF767FF05460098401C7B
:1005B00000901DB90098B0F5A06FF3D13120FFF77E
:1005C0005BFF08B1012400E00024204638BD042868
:1005D00008D14FF0E021096941F004014FF0E02219
:1005E000116107E04FF0E021096921F004014FF0AB
:1005F000E02211617047000010B50A480068C0434E
:100600000849086008460068012804D1C10306486B
:10061000FFF751FE04E04FF400410348FFF74DFEA1
:1006200010BD000000000020001001400EB50121A7
:100630000220FFF7A9FE0020ADF80600ADF8020089
:1006400040F2E730ADF804004720ADF800006946FD
:10065000084800F051F80121064800F021F8012275
:100660001146044800F03FF80121024800F01EF84E
:100670000EBD00000004004010B50121064800F046
:1006800021F840B105480068401C04490860012178
:10069000014800F008F810BD0004004004000020EC
:1006A000CA4302827047CA430282704721B102885E
:1006B00042F00102028004E0028840F2FE331A4058
:1006C0000280704730B50246002000230024158ABE
:1006D00005EA0103958905EA010413B10CB1012073
:1006E00000E0002030BD1AB183890B43838102E012
:1006F00083898B4383817047028802F08F020280D6
:10070000CA884B881A4303881A4302808A888285E4
:100710000A880285054A904202D0054A904201D1DA
:100720000A7A02860122828270470000002C014072
:100730000034014002E008C8121F08C1002AFAD1A3
:1007400070477047002001E001C1121F002AFBD151
:10075000704700000124FFF737FEFFF7B0FDFFF7F9
:1007600009FD2049B1F1807F00D31DE021F07F40D9
:10077000401E4FF0E022506150170F22002807DA88
:1007800013071E0E184B00F00F052D1F5E5503E0DA
:1007900013071D0E154B1D5400BF00204FF0E02223
:1007A00090610720106100BF6FF00400FFF70FFF9A
:1007B000FFF73CFF15E00E480068B0F57A7F10D1D6
:1007C00000200B490860E04384B2012C04D1A1034E
:1007D0000848FFF770FD04E04FF480410548FFF73B
:1007E0006CFDE8E74054890018ED00E000E400E00B
:1007F000040000200010014018080008000000203C
:100800000800000034070008200800080800002045
:100810000002000044070008010000000100000081
:04000005080000ED02
:00000001FF
