:020000040800F2
:10000000280200200101000805010008070100087E
:10001000090100080B0100080D01000800000000A4
:100020000000000000000000000000000F010008B8
:10003000110100080000000013010008150100086C
:100040001701000817010008170100081701000830
:100050001701000817010008170100081701000820
:100060001701000817010008170100081701000810
:100070001701000817010008170100081701000800
:1000800017010008170100081701000817010008F0
:1000900017010008170100081701000817010008E0
:1000A00017010008170100081701000817010008D0
:1000B00017010008170100081701000817010008C0
:1000C00017010008170100081701000817010008B0
:1000D00017010008170100081701000817010008A0
:1000E000170100081701000817010008DFF80CD0FD
:1000F00000F02AF800480047310D000828020020CF
:1001000005480047FEE7FEE7FEE7FEE7FEE7FEE7FD
:10011000FEE7FEE7FEE7FEE7ED00000830B50B4620
:10012000014600202022012409E021FA02F59D4227
:1001300005D303FA02F5491B04FA02F52844151EFB
:10014000A2F10102F1DC30BD064C074D06E0E0688B
:1001500040F0010394E8070098471034AC42F6D30E
:10016000FFF7C8FFC80D0008E80D000821B182683C
:1001700042F00102826003E0826822F001028260A4
:100180007047000000B591B00121084600F0C2FAA6
:1001900001214FF4017000F0CDFA2020ADF80000ED
:1001A00000208DF803006946344800F027FA3448EF
:1001B00000F044F933480190334802900020039046
:1001C000012004900020059006904FF48070079065
:1001D000800008902020099000020A9000200B90D7
:1001E00001A9274800F0CCF90121254800F01AF9AF
:1001F00000200C9001208DF834008DF835004FF46C
:1002000060200E9000200F9001208DF840000CA976
:100210001C484C3800F05AF80523012210211948D7
:100220004C3800F07BF8012000F0EAF80121154875
:100230004C3800F02BF8012112484C38FFF796FF9C
:1002400010484C3800F0C6F800BF0E484C3800F09B
:1002500032F80028F9D10B484C3800F0CBF800BF39
:1002600008484C3800F01DF80028F9D10121054854
:100270004C3800F0B4F811B000BD00000008014097
:10028000080002404C2401400000002021B1826897
:1002900042F48072826003E0826822F4807282609D
:1002A0007047014600208A6802F004020AB101206A
:1002B00000E000207047014600208A6802F0080232
:1002C0000AB1012000E000207047000030B502466E
:1002D0000020002350680F4C20400D790C6844EA40
:1002E00005242043506090680B4C2040D1E9025413
:1002F0002C434D7944EA450420439060D06A20F4B1
:1003000070000C7C641E1C43E3B240EA0350D062D0
:1003100030BD0000FFFEF0FFFDF7F1FFF0B5044631
:100320000D4600200021092D11DDE068A5F10A0627
:1003300006EB4607072606FA07F18843A5F10A06E9
:1003400006EB460603FA06F10843E0600CE020697C
:1003500005EB4507072606FA07F1884305EB450636
:1003600003FA06F108432061072A0FDA606B561E74
:1003700006EB86071F2606FA07F18843561E06EB92
:10038000860605FA06F10843606322E00D2A0FDABB
:10039000206BD61F06EB86071F2606FA07F1884357
:1003A000D61F06EB860605FA06F10843206310E027
:1003B000E06AA2F10D0606EB86071F2606FA07F192
:1003C0008843A2F10D0606EB860605FA06F10843FE
:1003D000E062F0BD816841F008018160704721B1A1
:1003E000826842F4A002826003E0826822F4A002E4
:1003F00082607047816841F00401816070470000AD
:1004000030B10749096841F40001054A116005E06F
:100410000349096821F40001014A11607047000096
:100420000824014021B1026842F00102026003E0A9
:10043000026822F00102026070470000016821F0AA
:10044000010101600021016041608160C160484A92
:10045000811A90425BD012DC464AA0EB0201904226
:100460003AD007DC44490144D9B1142922D02829C3
:100470007AD128E0142938D0282975D13EE0B1F589
:100480006C7F5BD006DCB1F5627F49D0B1F5677F48
:100490006AD14CE0B1F5717F57D0B1F5767F63D169
:1004A0005BE034494439496841F00F01314A443A2C
:1004B00051605AE02F494439496841F0F0012D4A12
:1004C000443A516051E02B494439496841F4706124
:1004D000284A443A516048E026494439496841F481
:1004E0007041244A443A51603FE022494439496806
:1004F00041F470211F4A443A516036E01D494439A5
:10050000496841F470011B4A443A51602DE0194991
:100510004439496841F07061164A443A516024E018
:100520001649096841F00F01144A11601DE0134992
:10053000096841F0F001114A116016E00F4909689D
:1005400041F470610D4A11600FE00C49096841F4F3
:1005500070410A4A116008E006E00849096841F460
:100560007021064A116000E000BF00BF7047000024
:100570008000024044000240F8FFFDBF0404024036
:1005800010B50022026847F6F0739A430C6A8B6834
:1005900023430C6923434C6923438C692343CC696F
:1005A00023434C6A23438C6A23431A430260CB687B
:1005B00043600B6883604B68C36010BD00E0401E61
:1005C0000028FCD1704700000549096821F010019E
:1005D000034A116011460968014311607047000029
:1005E0000020024001460020034A106800F0380055
:1005F0000843106070470000002002402DE9F041E0
:10060000024600250026002000230024002791F840
:1006100003C00CF00F0591F803C00CF0100CBCF1F6
:10062000000F03D091F802C04CEA050591F800C014
:10063000BCF1000F31D0146800202BE04FF0010C0A
:100640000CFA00F3B1F800C00CEA03069E4220D178
:1006500083004FF00F0C0CFA03F7BC4305FA03FCC0
:100660004CEA040491F803C0BCF1280F06D14FF006
:10067000010C0CFA00FCC2F814C00AE091F803C0A7
:10068000BCF1480F05D14FF0010C0CFA00FCC2F888
:1006900010C0401C0828D1D31460B1F800C0BCF1D0
:1006A000FF0F34DD546800202EE000F1080C4FF0FD
:1006B000010808FA0CF3B1F800C00CEA03069E42E8
:1006C00021D183004FF00F0C0CFA03F7BC4305FA5D
:1006D00003FC4CEA040491F803C0BCF1280F05D1D7
:1006E00000F1080C08FA0CF8C2F8148091F803C065
:1006F000BCF1480F07D100F1080C4FF0010808FACF
:100700000CF8C2F81080401C0828CED35460BDE815
:10071000F081000029B1064A52690243044B5A6134
:1007200004E0034A52698243014B5A61704700005A
:100730000010024029B1064A92690243044B9A61B3
:1007400004E0034A92698243014B9A6170470000BA
:100750000010024010B500F02FF84FF4803000F088
:10076000EDF800F049F90446012C24D11020FFF7E0
:100770002BFF0220FFF736FF002000F0D3F8002007
:1007800000F00EF9A00200F0FFF84FF4E011200491
:1007900000F018F9012000F00FF900BF392000F037
:1007A0009BF80028FAD0022000F01AF900BF00F0F0
:1007B000B1F80828FBD110BD0F48006840F00100D7
:1007C0000D490860084640680C4908400A494860DD
:1007D000084600680A49084007490860084600685A
:1007E00020F4802008600846406820F4FE0048603D
:1007F0000020886070470000001002400000FFF8F1
:10080000FFFFF6FE30B500210022002400232D4D0D
:100810006D6805F00C0121B1042905D0082923D108
:1008200005E0294D056022E0274D05601FE0254DBC
:100830006D6805F47012022505EB9242214D6D683A
:1008400005F480341CB9214D554305600BE01D4D66
:100850006D6805F400351DB11C4D5543056002E07F
:10086000194D5543056002E0174D056000BF00BFFC
:10087000144D6D6805F0F0010909154D6B5C0568B4
:10088000DD4045600F4D6D6805F4E061090A104DCB
:100890006B5C4568DD4085600A4D6D6805F460510C
:1008A000C90A0B4D6B5C4568DD40C560054D6D6840
:1008B00005F44041890B074D6B5CC568B5FBF3F54A
:1008C000056130BD0010024000127A0000093D00B1
:1008D0000A0000201A00002010B501460022002363
:1008E00000204A11012A02D1094C236806E0022A9D
:1008F00002D1074C236A01E0054C636A01F01F0234
:10090000012494401C400CB1012000E0002010BDE7
:10091000001002400248406800F00C0070470000E0
:100920000010024001460020034A506820F0F00009
:1009300008435060704700000010024011490968E8
:1009400021F480310F4A11601146096821F4802199
:100950001160B0F5803F03D0B0F5802F0ED106E0D6
:100960000849096841F48031064A116007E00549E9
:10097000096841F4A021034A116000E000BF00BFF4
:10098000704700000010024001460020034A5068F2
:1009900020F4E060084350607047000000100240FF
:1009A00001460020034A506820F4605040EAC1002C
:1009B000506070470010024001490866704700000F
:1009C0000000424202460020044B586820F47C108C
:1009D00042EA01031843014B58607047001002407F
:1009E00001460020034A506820F00300084350608D
:1009F000704700000010024038B50020009000242D
:100A0000002500BF3120FFF767FF05460098401C16
:100A100000901DB90098B0F5A06FF3D13120FFF719
:100A20005BFF08B1012400E00024204638BD21B15D
:100A3000828942F40052828104E082894DF6FF737C
:100A40001A4082817047000010B586B0044601212B
:100A500044F20400FFF76EFE4FF40070ADF804009E
:100A600018208DF8070003208DF8060001A9124810
:100A7000FFF7C4FD4FF48060ADF8040004208DF84A
:100A8000070001A90C48FFF7B9FD02940020ADF85A
:100A90000C00ADF80E00ADF81000ADF814000C20FD
:100AA000ADF8120002A9054800F014F8012103482E
:100AB000FFF7BDFF06B010BD00080140003801403F
:100AC0000246002013880B400BB1012000E00020FB
:100AD000704700002DE9F04786B005460E46002419
:100AE000A24600BF00BF00272F462C8A4CF6FF709D
:100AF0000440F08804432C82AC894EF6F310044085
:100B0000B08831890843718908430443AC81AC8AB9
:100B10004FF6FF400440B0890443AC8201A8FFF7C0
:100B200071FE1248874202D1DDF810A001E0DDF825
:100B30000CA00AEBCA0000EB0A1031688900B0FB78
:100B4000F1F86420B8FBF0F004012009642101FBF6
:100B50001089322000EB0910B0FBF1F000F00F001B
:100B600004432C8106B0BDE8F08700000038014046
:100B7000C1F30802828070470FB4054B10B503A97A
:100B8000044A029800F018F810BC5DF814FB00004D
:100B90000D0D00082000002002E008C8121F08C147
:100BA000002AFAD170477047002001E001C1121FEE
:100BB000002AFBD1704700002DE9FF4F89B09B460A
:100BC0000446002506E025280BD05A460B9990478D
:100BD000641C6D1C20780028F5D10DB02846BDE8B6
:100BE000F08F0027B8460122474900E0074314F878
:100BF000013F203B02FA03F00842F7D120782E286B
:100C000019D114F8010F47F004072A280ED06FF00D
:100C10002F022078A0F1300109290CD808EB8801B7
:100C200002EB410100EB0108641CF2E70A98641C26
:100C300050F8048B0A9020780028CED0642808D081
:100C4000692806D075281ED05A460B9990476D1C0E
:100C500058E00A994FF00A0901C90A91002802DAFE
:100C600040422D2102E0390504D52B218DF82010BA
:100C7000012103E0F90704D02021F7E78A4608AEF6
:100C80000DE00021FAE70A994FF00A0901C90A911B
:100C9000F7E74946FFF742FA303106F8011D002810
:100CA000F7D1ADEB060000F12009780701D44FF031
:100CB0000108C84502DDA8EB090000E000208046DD
:100CC000002706E008A85A46C05D0B9990476D1CA6
:100CD0007F1C5745F6DB04E030205A460B999047BD
:100CE0006D1CB8F10001A8F10108F5DC05E016F86B
:100CF000010B5A460B9990476D1CB9F10001A9F1FF
:100D00000109F4DC641C65E70928010070B504469C
:100D10000D46E1B20548FFF72BFF00BF80210348D5
:100D2000FFF7CEFE0028F9D0204670BD0038014004
:100D3000FFF710FD4FF4E130FFF786FEFFF722FAD0
:100D40000EA0FFF719FF17E010480088104908802F
:100D50001048FFF733FC104800880D490988401AF5
:100D60000E49098890FBF1F019300D4908800846BA
:100D700001880CA0FFF700FFE6E700000D0A2068DD
:100D800075696A69616E67200D0A00000000002025
:100D900002000020EEFFFF000600002008000020F7
:100DA000040000200D0A2054686520637572726586
:100DB0006E742074656D7065726174757265203D26
:100DC000202564200D0A0000E80D00080000002026
:100DD00024000000980B00080C0E000824000020DE
:100DE00004020000A80B0008000000000000E2065A
:100DF00005000000000001020304010203040607CD
:0C0E0000080902040608000000000000C1
:04000005080000ED02
:00000001FF
